S01400005348525F4669726D776172652E7372656387
S113000049C0000057C0000055C0000053C00000A4
S113001051C000004FC000004DC000004BC00000A4
S113002049C0000047C0000045C0000043C00000B4
S113003041C000003FC000003DC000003BC00000C4
S113004040C2000037C0000035C0000033C00000CB
S113005031C000002FC000002DC000002BC00000E4
S113006029C0000039C0000025C0000023C00000E2
S113007021C000001FC000001DC000001BC0000004
S113008019C0000017C0000015C0000013C0000014
S113009011C0000011241FBECFEFD0E1DEBFCDBFE1
S11300A021E0A0E0B1E001C01D92AD31B207E1F75B
S11300B0F1D0D6C3A5CF81E480937C00EAE7F0E0D9
S11300C08CE8808380818064808308958DEC8093A4
S11300D07A0082E083BF08951F920F920FB60F92A9
S11300E011240BB60F922F933F938F93EF93FF93AB
S11300F080910001E82FF0E02091780030917900A0
S1130100EE0FFF1FEF5EFE4F318320838F5F8093DE
S11301100001853011F41092000180910001806487
S113012080937C00FF91EF918F913F912F910F90DD
S11301300BBE0F900FBE0F901F901895E82FF0E0A4
S1130140EE0FFF1FEF5EFE4F80819181089588308E
S113015078F02091DD0090E0089730E002C03595FA
S113016027958A95E2F781E020FF0DC080E008958D
S11301702091DC0030E002C0359527958A95E2F79E
S113018081E020FD80E008951092D80040E029C06D
S113019080E1489F90011124822F88608093ED00B4
S11301A01092EE001092EF001092F0001092F10005
S11301B01092F2001092F3001092F4001092F500E5
S11301C01092F6001092F70080E008C0982F922B4E
S11301D098609093ED001092FA008F5F8830B0F32E
S11301E04F5F4F30A8F21092E2008CE08093E3005E
S11301F086E38093E4001092DB00E8EDF0E0808178
S1130200826080830895CF93DF93EC0120E010C0D7
S11302108C8130E1839FC0011124822B88608093FC
S1130220ED00FB01E20FF11D80818093FA002F5F46
S1130230283070F38C818295807F8093ED008C81CF
S113024086DF882321F1EEEEF0E010828881998127
S11302509695879596958795969587958093F300BF
S113026088818295880F807E8093F2001092F1003D
S11302701092F0001092F7001092F6001092F50020
S11302801092F400108288E48093EF001082DF91D2
S1130290CF910895CF93DF93CDB7DEB72D970FB6E7
S11302A0F894DEBF0FBECDBFFAD003D104DF6CDFFC
S11302B080E094E09A8389831C821B821D82FE0164
S11302C0369688E0DF011D928A95E9F7789480914B
S11302D00D0190910E01A0910F01B0911001409178
S11302E0090150910A0160910B0170910C0184176E
S11302F09507A607B70779F18093090190930A013E
S1130300A0930B01B0930C01E1DE80910501909163
S11303100601A0910701B09108010196A11DB11D2C
S11303208093050190930601A0930701B0930801FF
S11303308091010190910201A0910301B091040107
S11303400196A11DB11D8093010190930201A09318
S11303500301B09304018091050190910601A091DD
S11303600701B09108010A97A105B10508F444C03A
S113037080E0E4DEBC0180E090E05DD141E057D054
S11303806093190170931A0180931B0190931C01CF
S113039081E0D4DEBC0180E090E04DD142E047D062
S11303A06B017C0160931501709316018093170112
S11303B0909318016091190170911A0180911B01A9
S11303C090911C010CD16E837F83C701B60107D1C4
S11303D0688779871A861B861C861D86BE016A5F1C
S11303E07F4FCE0101960FDF109205011092060196
S11303F0109207011092080180910101909102016D
S1130400A0910301B091040184369105A105B105C1
S113041008F45DCF98B184E0892788B9109201016E
S113042010920201109203011092040150CFCF9256
S1130430DF92EF92FF92413019F0423071F01AC00E
S113044020E030E041E654E461D024EE38E34EE8A5
S11304505FEBA3D16B017C0110C020E030EC4FE7CF
S113046054E454D025E837E34AE150EC96D16B01CB
S11304707C0103C0C12CD12C760120E030E0A9011D
S1130480C701B601A8D088231CF4C12CD12C760155
S1130490C701B601FF90EF90DF90CF90089587B128
S11304A0856087B98DB183608DB980B38C7F80BB43
S11304B008958BE084BD82E080936E0089EF87BD50
S11304C008951F920F920FB60F9211248F939F934A
S11304D0AF93BF9380910D0190910E01A0910F01F4
S11304E0B09110010196A11DB11D80930D0190934F
S11304F00E01A0930F01B0931001BF91AF919F9192
S11305008F910F900FBE0F901F9018955058BB27D6
S1130510AA270ED008C1F9D030F0FED020F031F473
S11305209F3F11F41EF4EEC00EF4E095E7FBE4C027
S1130530E92F0AD180F3BA17620773078407950776
S113054018F071F49EF522C10EF4E0950B2EBA2F2B
S1130550A02D0B01B90190010C01CA01A0011124C5
S1130560FF27591B99F0593F50F4503E68F11A1671
S1130570F040A22F232F342F4427585FF3CF469502
S113058037952795A795F0405395C9F77EF41F1624
S1130590BA0B620B730B840BBAF09150A1F0FF0FEE
S11305A0BB1F661F771F881FC2F70EC0BA0F621FDA
S11305B0731F841F48F4879577956795B795F795CA
S11305C09E3F08F0B3CF9395880F08F09927EE0F5C
S11305D09795879508956CD008F481E00895BCD070
S11305E088F09F5790F0B92F9927B751A0F0D1F018
S11305F0660F771F881F991F1AF0BA95C9F712C0A2
S1130600B13081F0C3D0B1E00895C0C0672F782F16
S11306108827B85F39F0B93FCCF38695779567950D
S1130620B395D9F73EF490958095709561957F4F79
S11306308F4F9F4F0895E89409C097FB3EF490951F
S11306408095709561957F4F8F4F9F4F9923A9F0A7
S1130650F92F96E9BB279395F69587957795679536
S1130660B795F111F8CFFAF4BB0F11F460FF1BC07A
S11306706F5F7F4F8F4F9F4F16C0882311F096E90D
S113068011C0772321F09EE8872F762F05C06623BB
S113069071F096E8862F70E060E02AF09A95660F74
S11306A0771F881FDAF7880F9695879597F908952D
S11306B0990F0008550FAA0BE0E8FEEF161617066F
S11306C0E807F907C0F012161306E407F50798F0D7
S11306D0621B730B840B950B39F40A2661F0232BF0
S11306E0242B252B21F408950A2609F4A140A6956C
S11306F08FEF811D811D089597F99F6780E870E051
S113070060E008959FEF80EC089500240A94161683
S1130710170618060906089500240A9412161306EB
S1130720140605060895092E0394000C11F4882379
S113073052F0BB0F40F4BF2B11F460FF04C06F5F95
S11307407F4F8F4F9F4F089557FD9058440F551F6B
S113075059F05F3F71F04795880F97FB991F61F03F
S11307609F3F79F087950895121613061406551FB6
S1130770F2CF4695F1DF08C0161617061806991F22
S1130780F1CF86957105610508940895E894BB2717
S113079066277727CB0197F908950BD0C4CFB5DF2F
S11307A028F0BADF18F0952309F0A6CFABCF1124B7
S11307B0EECFCADFA0F3959FD1F3950F50E0551FFC
S11307C0629FF001729FBB27F00DB11D639FAA27A2
S11307D0F00DB11DAA1F649F6627B00DA11D661FF1
S11307E0829F2227B00DA11D621F739FB00DA11D12
S11307F0621F839FA00D611D221F749F3327A00DCC
S1130800611D231F849F600D211D822F762F6A2F67
S113081011249F5750408AF0E1F088234AF0EE0FEC
S1130820FF1FBB1F661F771F881F91505040A9F7F9
S11308309E3F510570F060CFAACF5F3FECF3983E26
S1130840DCF3869577956795B795F795E7959F5F60
S1130850C1F7FE2B880F911D9695879597F90895FA
S1070860F894FFCF36
S9030000FC
