S01400005348425F4669726D776172652E7372656397
S113000049C0000057C0000055C0000053C00000A4
S113001051C000004FC000004DC000004BC00000A4
S113002049C0000047C0000045C0000043C00000B4
S113003041C000003FC000003DC000003BC00000C4
S1130040C2C1000037C0000035C0000033C000004A
S113005031C000002FC000002DC000002BC00000E4
S113006029C0000037C0000025C0000023C00000E4
S113007021C000001FC000001DC000001BC0000004
S113008019C0000017C0000015C0000013C0000014
S113009011C0000011241FBECFEFD0E1DEBFCDBFE1
S11300A021E0A0E0B1E001C01D92A531B207E1F763
S11300B0FED0AEC1A5CF80E480937C00EAE7F0E0F7
S11300C08CE88083808180648083089588EC8093A9
S11300D07A0008951F920F920FB60F9211240BB657
S11300E00F922F933F934F935F936F937F938F93CD
S11300F09F93AF93BF93EF93FF9380910001E82FF9
S1130100F0E02091780030917900EE0FFF1FE35F5B
S1130110FE4F318320838F5F80930001843011F47C
S11301201092000180910001806480937C00CEDFF6
S1130130FF91EF91BF91AF919F918F917F916F91BB
S11301405F914F913F912F910F900BBE0F900FBE77
S11301500F901F901895E82FF0E0EE0FFF1FE35F5C
S1130160FE4F808191810895883078F02091DD00E0
S113017090E0089730E002C0359527958A95E2F71C
S113018081E020FF0DC080E008952091DC0030E084
S113019002C0359527958A95E2F781E020FD80E03D
S11301A008951092D80040E029C080E1489F900152
S11301B01124822F88608093ED001092EE0010923B
S11301C0EF001092F0001092F1001092F2001092E1
S11301D0F3001092F4001092F5001092F6001092C1
S11301E0F70080E008C0982F922B98609093ED0060
S11301F01092FA008F5F8830B0F34F5F4F30A8F24F
S11302001092E2008CE08093E30086E38093E400A4
S11302101092DB00E8EDF0E0808182608083089535
S1130220CF93DF93EC0120E010C08C8130E1839FF9
S1130230C0011124822B88608093ED00FB01E20F42
S1130240F11D80818093FA002F5F283070F38C8138
S11302508295807F8093ED008C8186DF882321F155
S1130260EEEEF0E0108288819981969587959695B7
S11302708795969587958093F30088818295880F5A
S1130280807E8093F2001092F1001092F0001092A0
S1130290F7001092F6001092F5001092F40010820C
S11302A088E48093EF001082DF91CF910895CF937B
S11302B0DF93CDB7DEB72D970FB6F894DEBF0FBE30
S11302C0CDBF6FD078D06DDFF6DE80E294E09A8304
S11302D089831C821B821D827894809109019091EC
S11302E00A01A0910B01B0910C01409105015091BC
S11302F00601609107017091080184179507A6070C
S1130300B707E1F08093050190930601A0930701DC
S1130310B0930801DBDE8091010190910201A0916C
S11303200301B09104010196A11DB11D8093010147
S113033090930201A0930301B09304018091010101
S113034090910201A0910301B09104014597A10588
S1130350B10518F681E0FFDE8E8381E0FCDE9F8329
S113036082E0F9DE888782E0F6DE998782E0F3DEB8
S11303708A8782E0F0DE9B8783E0EDDE8C8783E072
S1130380EADE9D87BE016A5F7F4FCE01019648DF9A
S113039010920101109202011092030110920401C3
S11303A09CCF87B1856087B98DB183608DB980B3E7
S11303B0807F80BB08958BE084BD89EF87BD82E098
S11303C080936E0008951F920F920FB60F9211241E
S11303D08F939F93AF93BF938091090190910A01EA
S11303E0A0910B01B0910C010196A11DB11D809348
S11303F0090190930A01A0930B01B0930C01BF91E2
S1130400AF919F918F910F900FBE0F901F901895F1
S1070410F894FFCF8A
S9030000FC
