S01400005348425F4669726D776172652E7372656397
S113000049C0000057C0000055C0000053C00000A4
S113001051C000004FC000004DC000004BC00000A4
S113002049C0000047C0000045C0000043C00000B4
S113003041C000003FC000003DC000003BC00000C4
S113004054C1000037C0000035C0000033C00000B8
S113005031C000002FC000002DC000002BC00000E4
S113006029C000002CC0000025C0000023C00000EF
S113007021C000001FC000001DC000001BC0000004
S113008019C0000017C0000015C0000013C0000014
S113009011C0000011241FBECFEFD0E1DEBFCDBFE1
S11300A021E0A0E0B1E001C01D92A131B207E1F767
S11300B0ABD040C1A5CF88EC80937A0008951F92FD
S11300C00F920FB60F9211240BB60F922F933F93FA
S11300D04F935F936F937F938F939F93AF93BF934C
S11300E0EF93FF9380910001E82FF0E020917800D6
S11300F030917900EE0FFF1FE35FFE4F31832083C1
S11301008F5F80930001823011F41092000180917E
S11301100001806480937C00CEDFFF91EF91BF915A
S1130120AF919F918F917F916F915F914F913F918B
S11301302F910F900BBE0F900FBE0F901F9018952C
S1130140883078F02091DD0090E0089730E002C01C
S1130150359527958A95E2F781E020FF0DC080E070
S113016008952091DC0030E002C0359527958A95EA
S1130170E2F781E020FD80E00895CF93DF93EC0166
S113018020E010C08C8130E1839FC0011124822BB8
S113019088608093ED00FB01E20FF11D8081809364
S11301A0FA002F5F283070F38C818295807F8093D2
S11301B0ED008C81C5DF882321F1EEEEF0E01082A2
S11301C08881998196958795969587959695879533
S11301D08093F30088818295880F807E8093F2005B
S11301E01092F1001092F0001092F7001092F600B5
S11301F01092F5001092F400108288E48093EF00CE
S11302001082DF91CF910895CF93DF93CDB7DEB7FE
S11302102D970FB6F894DEBF0FBECDBF54D05DD07E
S113022080E294E09A8389831C821B821D827894E5
S11302308091090190910A01A0910B01B0910C01E8
S113024040910501509106016091070170910801E8
S113025084179507A607B707D9F0809305019093F3
S11302600601A0930701B0930801809101019091C8
S11302700201A0910301B09104010196A11DB11DD9
S11302808093010190930201A0930301B0930401B0
S11302908091010190910201A0910301B0910401A8
S11302A00B97A105B10520F61E821F8218861986B8
S11302B01A861B861C861D86BE016A5F7F4FCE018F
S11302C001965BDFB5CF87B1856087B98DB1836057
S11302D08DB980B3887F80BB08958BE084BD89EF9E
S11302E087BD82E080936E0008951F920F920FB62F
S11302F00F9211248F939F93AF93BF938091090121
S113030090910A01A0910B01B0910C010196A11DDD
S1130310B11D8093090190930A01A0930B01B0933E
S11303200C01BF91AF919F918F910F900FBE0F90D1
S10B03301F901895F894FFCF0B
S9030000FC
