:1000000076C0000092C0000090C000008EC00000CA
:100010008CC000008AC0000088C0000086C00000BC
:1000200084C0000082C0000080C000007EC00000CC
:100030007CC000007AC0000078C0000076C00000DC
:1000400026C5000072C0000070C000006EC0000035
:100050006CC000006AC0000068C0000066C00000FC
:1000600064C0000090C0000060C000005EC00000DE
:100070005CC000005AC0000058C0000056C000001C
:1000800054C0000052C0000050C000004EC000002C
:100090004CC0000008000000BE922449123EABAAEA
:1000A000AA2ABECDCCCC4C3E00000080BEABAAAA92
:1000B000AA3E00000000BF000000803F00000000DA
:1000C00000084178D3BB4387D1133D190E3CC3BD13
:1000D0004282AD2B3E68EC8276BED98FE1A93E4CC0
:1000E00080EFFFBE01C4FF7F3F000000000011242D
:1000F0001FBECFEFD0E1DEBFCDBF11E0A0E0B1E089
:10010000E4E5F4E100E00BBF02C007900D92A831D6
:10011000B107D9F721E0A8E1B1E001C01D92AB37EA
:10012000B207E1F725D20C94280A6ACFCF93DF9368
:10013000CDB7DEB78CE790E021E4FC0120838AE7AD
:1001400090E02CE8FC0120838AE790E02AE730E089
:10015000F90120812064FC0120830000DF91CF9110
:100160000895CF93DF93CDB7DEB78AE790E02DEC0B
:10017000FC01208383E590E022E0FC012083000065
:10018000DF91CF9108951F920F9200905F000F9220
:10019000112400905B000F922F933F938F939F93B6
:1001A000EF93FF93CF93DF93CDB7DEB78091180124
:1001B000882F90E028E730E0F90120813181880F15
:1001C000991F8B5C9E4FFC01318320838091180125
:1001D0008F5F8093180180911801873011F410927D
:1001E00018018CE790E0209118012064FC01208325
:1001F0000000DF91CF91FF91EF919F918F913F91FF
:100200002F910F9000925B000F9000925F000F9073
:100210001F901895CF93DF931F92CDB7DEB78983D8
:100220008981882F90E0880F991F8B5C9E4FFC017D
:10023000808191810F90DF91CF910895CF93DF93CB
:10024000CDB7DEB780E194E09093630180936201C3
:100250008FEF9FEF90936501809364011092660188
:1002600081E194E090935E0180935D018FEF9FEFB9
:100270009093600180935F0181E08093610182E14E
:1002800094E090935901809358018FEF9FEF9093E2
:100290005B0180935A0182E080935C0183E194E0EA
:1002A00090934401809343018FEF9FEF9093460119
:1002B0008093450183E0809347010000DF91CF9157
:1002C0000895CF93DF9300D0CDB7DEB78A8319822C
:1002D0008A818830C0F08DED90E0FC018081882F0C
:1002E00090E02A81222F30E02850310902C09595F4
:1002F00087952A95E2F78170992721E0892B09F0EB
:1003000020E0298315C08CED90E0FC018081882FCE
:1003100090E02A81222F30E002C0959587952A959A
:10032000E2F78170992721E0892B09F020E02983E9
:1003300089810F900F90DF91CF910895CF93DF9334
:1003400000D0CDB7DEB788ED90E0FC0110821982B5
:1003500056C08DEE90E02981222F30E02295329513
:10036000307F3227207F32272860FC0120838EEEE9
:1003700090E0FC0110828FEE90E0FC01108280EF93
:1003800090E0FC01108281EF90E0FC01108282EF8E
:1003900090E0FC01108283EF90E0FC01108284EF7A
:1003A00090E0FC01108285EF90E0FC01108286EF66
:1003B00090E0FC01108287EF90E0FC0110821A822D
:1003C00018C08DEE90E02981222F30E022953295E1
:1003D000307F3227207F3227322F2A81232B28603B
:1003E000FC0120838AEF90E0FC0110828A818F5FFC
:1003F0008A838A81883028F389818F5F8983898104
:100400008F3008F4A6CF82EE90E022E0FC0120833A
:1004100083EE90E02CE0FC01208384EE90E027E363
:10042000FC0120838BED90E0FC01108288ED90E0D0
:1004300028ED30E0F90120812260FC0120830000DA
:100440000F900F90DF91CF910895CF93DF9300D05D
:1004500000D01F92CDB7DEB79B838A837D836C83E8
:10046000198224C08DEE90E02A813B81F90124811C
:10047000222F30E022953295307F3227207F32279D
:10048000322F2981232B2860FC0120838AEF90E002
:100490002981222F30E04C815D81240F351FF90125
:1004A0002081FC01208389818F5F89838981883045
:1004B000C8F28DEE90E02A813B81F90124812295DA
:1004C000207FFC0120838A819B81FC018481F9DEED
:1004D000882309F444C08EEE90E0FC01108283EF83
:1004E00090E02A813B81F901208131813695279561
:1004F0003695279536952795FC01208382EF90E06D
:100500002A813B81F901208131812295220F207EB1
:10051000FC01208381EF90E0FC01108280EF90E0ED
:10052000FC01108287EF90E0FC01108286EF90E0E2
:10053000FC01108285EF90E0FC01108284EF90E0D6
:10054000FC0110828EEE90E0FC0110828FEE90E0B4
:1005500028E4FC0120838EEE90E0FC011082000074
:100560000F900F900F900F900F90DF91CF91089503
:10057000EF92FF920F931F93CF93DF93CDB7DEB728
:10058000C054D1090FB6F894DEBF0FBECDBF3CD228
:1005900055D2CCDDACD4D2DE51DE80E194E09E8732
:1005A0008D878FEF9FEF988B8F87198A28E0CE0178
:1005B0004296FC01E22E1192EA94E9F781E194E07F
:1005C0009B8F8A8F8FEF9FEF9D8F8C8F81E08E8F17
:1005D00028E0CE014F96FC01E22E1192EA94E9F751
:1005E00082E194E098A78FA38FEF9FEF9AA789A746
:1005F00082E08BA728E0CE018C96FC01E22E1192BE
:10060000EA94E9F783E194E09DAB8CAB8FEF9FEF29
:100610009FAB8EAB83E088AF28E0CE01C996FC018A
:10062000E22E1192EA94E9F7789420913101309109
:100630003201409133015091340180911901909120
:100640001A01A0911B01B0911C01281739074A0714
:100650005B0789F08091310190913201A0913301C3
:10066000B09134018093190190931A01A0931B015A
:10067000B0931C0176DD209131013091320140911F
:1006800033015091340180911D0190911E01A09180
:100690001F01B091200179018A01E81AF90A0A0BB9
:1006A0001B0BD801C7010A97A105B10580F0809105
:1006B000310190913201A0913301B09134018093C6
:1006C0001D0190931E01A0931F01B0932001209162
:1006D00031013091320140913301509134018091C8
:1006E000210190912201A0912301B091240179016F
:1006F0008A01E81AF90A0A0B1B0BD801C7018436D4
:100700009105A105B10508F4E0C0809131019091F7
:100710003201A0913301B091340180932101909373
:100720002201A0932301B093240180E073DDCC016A
:10073000A0E0B0E0BC01CD0122D5DC01CB01BC01C1
:10074000CD01D3D19A83898381E064DDCC01A0E01F
:10075000B0E0BC01CD0113D5DC01CB01BC01CD0162
:10076000C4D19C838B8382E055DDCC01A0E0B0E056
:10077000BC01CD0104D5DC01CB01BC01CD01B5D15B
:100780009E838D8387E046DDCC01A0E0B0E0BC0114
:10079000CD01F5D4DC01CB01BC01CD01A6D19887F8
:1007A0008F8384E037DDCC01A0E0B0E0BC01CD0157
:1007B000E6D4DC01CB01BC01CD0157D3DC01CB0178
:1007C00020E030E04AED52E4BC01CD01E0D3DC0191
:1007D000CB01BC01CD01A7D4DC01CB019A8789876D
:1007E00086E018DDCC01A0E0B0E0BC01CD01C7D4AB
:1007F000DC01CB01BC01CD0138D3DC01CB0120E011
:1008000030E04AEE52E4BC01CD01C1D3DC01CB01A2
:10081000BC01CD0188D4DC01CB019C878B87809102
:100820007701909178018A8B8091790190917A017A
:10083000892F99278B8B1C8A1D8A1E8A1F8A188EE6
:10084000198E89818F8F89819A81892F992788A311
:100850008B8189A38B819C81892F99278AA38D8184
:100860008BA38D819E81892F99278CA38F818DA346
:100870008F819885892F99278EA389858CA7898553
:100880009A85892F99278DA78B858EA78B859C8527
:10089000892F99278FA718AA19AA1AAA1BAA9E01FD
:1008A0002E5E3F4FCE010D96B901CFDD9E01215E38
:1008B0003F4FCE014A96B901C8DD9E01245D3F4FEE
:1008C000CE018796B901C1DDD0D0209131013091A0
:1008D0003201409133015091340180912501909172
:1008E0002601A0912701B091280179018A01E81A17
:1008F000F90A0A0B1B0BD801C701883C9105A10519
:10090000B10508F492CE8091310190913201A0910D
:100910003301B09134018093250190932601A09377
:100920002701B093280180E0D3D1DC01CB01BC01C9
:10093000CD01F9D3DC01CB0190932A0180932901E9
:1009400081E0C6D1DC01CB01BC01CD01ECD3DC01DF
:10095000CB0190932C0180932B0182E0B9D1DC0173
:10096000CB01BC01CD01DFD3DC01CB0190932E0183
:1009700080932D0183E0ACD1DC01CB01BC01CD0122
:10098000D2D3DC01CB019093300180932F01809171
:10099000290190912A0189AF8091290190912A0122
:1009A000892F99278AAF80912B0190912C018BAFD1
:1009B00080912B0190912C01892F99278CAF8091E8
:1009C0002D0190912E018DAF80912D0190912E01DE
:1009D000892F99278EAF80912F01909130018FAF91
:1009E00080912F0190913001892F9927282FCE01D6
:1009F000805C9F4FFC0120839E01275C3F4FCE010E
:100A0000C496B90122DD11CECF93DF93CDB7DEB707
:100A100087E290E027E230E0F90120812560FC01C7
:100A2000208380E390E020E330E0F9012081287FFB
:100A3000FC0120830000DF91CF910895CF93DF93D5
:100A4000CDB7DEB784E490E02BE0FC0120838EE696
:100A500090E022E0FC01208387E490E029EFFC0194
:100A600020830000DF91CF910895CF93DF93CDB71E
:100A7000DEB788E290E028E230E0F901308124E03E
:100A80002327FC0120830000DF91CF9108951F925E
:100A90000F9200905F000F9211248F939F93AF935A
:100AA000BF93CF93DF93CDB7DEB7809131019091A3
:100AB0003201A0913301B09134010196A11DB11D05
:100AC0008093310190933201A0933301B0933401AC
:100AD0000000DF91CF91BF91AF919F918F910F90C7
:100AE00000925F000F901F9018958F929F92AF9287
:100AF000BF92CF92DF92EF92FF920F931F93CF930B
:100B0000DF93CDB7DEB764970FB6F894DEBF0FBEA4
:100B1000CDBF698B7A8B8B8B9C8B80910C019091D4
:100B20000D01A0910E01B0910F01209110013091A3
:100B300011014091120150911301BC01CD018BD2E2
:100B4000DC01CB0129893A894B895C89BC01CD0143
:100B5000E9D3DC01CB0189839A83AB83BC83809189
:100B60000C0190910D01A0910E01B0910F0129810E
:100B70003A814B815C81BC01CD016DD2DC01CB019E
:100B800020E030E040E85FE3BC01CD01FFD1DC01B3
:100B9000CB017C018D018091140190911501A091F0
:100BA0001601B09117019C01AD01C801B701BAD37C
:100BB000DC01CB018D839E83AF83B88780910001D8
:100BC00090910101A0910201B091030120910801CF
:100BD0003091090140910A0150910B01BC01CD01F6
:100BE000A1D3DC01CB016C017D01809104019091C6
:100BF0000501A0910601B09107019C01AD016D8135
:100C00007E818F81988527D2DC01CB01BC01CD018B
:100C100049D34B015C018091080190910901A09199
:100C20000A01B0910B019C01AD01C501B4017AD359
:100C3000DC01CB014C015D0180910001909101012B
:100C4000A0910201B09103019C01AD01C501B40165
:100C50009ED1DC01CB019C01AD01C701B601FBD1E6
:100C6000DC01CB0189879A87AB87BC8723E333E913
:100C700048E853E469857A858B859C8587D1DC01BA
:100C8000CB0120E030E040E251E4BC01CD014AD389
:100C9000DC01CB018D879E87AF87B88B6D857E8504
:100CA0008F85988940D2DC01CB0164960FB6F89409
:100CB000DEBF0FBECDBFDF91CF911F910F91FF908F
:100CC000EF90DF90CF90BF90AF909F908F9008955E
:100CD000CF93DF93CDB7DEB729970FB6F894DEBF79
:100CE0000FBECDBF898719821A821C821B821D828A
:100CF0001E821F8218868985882F90E08130910599
:100D0000B1F0823091051CF4892B39F02EC082306D
:100D10009105B9F00397F9F028C08EE290E02EE239
:100D200030E0F90120812E7FFC0120831EC08EE27D
:100D300090E02EE230E0F90120812D7FFC0120833C
:100D400014C08EE290E02EE230E0F90120812B7F8A
:100D5000FC0120830AC08EE290E02EE230E0F9012F
:100D60002081277FFC012083000080E0F5D089836B
:100D700080E0F2D08A838985882F90E081309105C8
:100D8000B1F0823091051CF4892B39F02EC08230ED
:100D90009105B9F00397F9F028C08EE290E02EE2B9
:100DA00030E0F90120812160FC0120831EC08EE229
:100DB00090E02EE230E0F90120812260FC012083E6
:100DC00014C08EE290E02EE230E0F9012081246030
:100DD000FC0120830AC08EE290E02EE230E0F901AF
:100DE00020812860FC01208300008981882F90E009
:100DF000382F22278A81882F90E0822B932B9C8387
:100E00008B838B819C8196958795969587959695F2
:100E100087959770CC01A0E0B0E0BC01CD01AFD1C7
:100E2000DC01CB0120E030E040E85EE3BC01CD0115
:100E300079D2DC01CB018D839E83AF83B88720E01C
:100E400030E048EC52E46D817E818F8198856AD2D2
:100E5000DC01CB01BC01CD0129960FB6F894DEBFB1
:100E60000FBECDBFDF91CF910895CF93DF93CDB764
:100E7000DEB728970FB6F894DEBF0FBECDBF6D83E7
:100E80007E838F83988719821A821B821C8220E0BE
:100E900030E048E852E46D817E818F81988576D07C
:100EA000DC01CB012EEF32EA4CE95DE3BC01CD0160
:100EB00039D2DC01CB0120E030E048EB51E4BC0149
:100EC000CD0165D0DC01CB0189839A83AB83BC83E0
:100ED00089819A81AB81BC81BC01CD0128960FB676
:100EE000F894DEBF0FBECDBFDF91CF910895CF93B1
:100EF000DF93CDB7DEB784E290E024E230E0F90181
:100F000020812660FC0120838DE290E02DE230E01C
:100F1000F90120812F61FC01208384E290E024E22A
:100F200030E0F9012081277FFC0120838CE490E0F0
:100F30002CE430E0F90120812265FC0120838EE25F
:100F400090E02EE230E0F90120812361FC01208352
:100F50000000DF91CF910895CF93DF931F92CDB71B
:100F6000DEB789838EE490E02981FC0120830000B4
:100F70008DE490E0FC0180818823D4F78EE490E03A
:100F8000FC0180810F90DF91CF9108955058BB27CD
:100F9000AA270ED048C139D130F03ED120F031F42B
:100FA0009F3F11F41EF42EC10EF4E095E7FB24C11F
:100FB000E92F4AD180F3BA176207730784079507B0
:100FC00018F071F49EF562C10EF4E0950B2EBA2F65
:100FD000A02D0B01B90190010C01CA01A00111243F
:100FE000FF27591B99F0593F50F4503E68F11A16EB
:100FF000F040A22F232F342F4427585FF3CF46957C
:1010000037952795A795F0405395C9F77EF41F169D
:10101000BA0B620B730B840BBAF09150A1F0FF0F67
:10102000BB1F661F771F881FC2F70EC0BA0F621F53
:10103000731F841F48F4879577956795B795F79543
:101040009E3F08F0B3CF9395880F08F09927EE0FD5
:101050009795879508950CD0E6C0DED040F0D5D0A6
:1010600030F021F45F3F19F0C7C0511110C1CAC060
:10107000EBD098F39923C9F35523B1F3951B550B86
:10108000BB27AA2762177307840738F09F5F5F4F5B
:10109000220F331F441FAA1FA9F333D00E2E3AF09C
:1010A000E0E830D091505040E695001CCAF729D0B6
:1010B000FE2F27D0660F771F881FBB1F2617370705
:1010C0004807AB07B0E809F0BB0B802DBF01FF2735
:1010D00093585F4F2AF09E3F510568F08DC0D7C0EE
:1010E0005F3FECF3983EDCF3869577956795B7956F
:1010F000F7959F5FC9F7880F911D9695879597F98A
:101100000895E1E0660F771F881FBB1F6217730702
:101110008407BA0720F0621B730B840BBA0BEE1F17
:1011200088F7E095089598D088F09F5790F0B92FF0
:101130009927B751A0F0D1F0660F771F881F991F2C
:101140001AF0BA95C9F712C0B13081F09FD0B1E062
:1011500008959CC0672F782F8827B85F39F0B93F72
:10116000CCF3869577956795B395D9F73EF490952E
:101170008095709561957F4F8F4F9F4F0895E894AC
:1011800009C097FB3EF490958095709561957F4FCF
:101190008F4F9F4F9923A9F0F92F96E9BB2793957D
:1011A000F695879577956795B795F111F8CFFAF48D
:1011B000BB0F11F460FF1BC06F5F7F4F8F4F9F4FBE
:1011C00016C0882311F096E911C0772321F09EE81C
:1011D000872F762F05C0662371F096E8862F70E082
:1011E00060E02AF09A95660F771F881FDAF7880F5C
:1011F0009695879597F9089597F99F6780E870E02D
:1012000060E008959FEF80EC089500240A9416167C
:10121000170618060906089500240A9412161306E4
:10122000140605060895092E0394000C11F4882372
:1012300052F0BB0F40F4BF2B11F460FF04C06F5F8E
:101240007F4F8F4F9F4F089557FD9058440F551F64
:1012500059F05F3F71F04795880F97FB991F61F038
:101260009F3F79F087950895121613061406551FAF
:10127000F2CF4695F1DF08C0161617061806991F1B
:10128000F1CF86957105610508940895E894BB2710
:1012900066277727CB0197F908950EF0A6C0B2CF45
:1012A0006894AACFD9DFC8F39923D1F3C6F3DF93AB
:1012B000CF931F930F93FF92C92FDD2788232AF026
:1012C0002197660F771F881FDAF720E030E040E8AB
:1012D0005FEB9FE3883920F0803E30F021968F77D6
:1012E00056DEE4E9F0E003C052DEE1ECF0E08BD042
:1012F0008B01BE01EC01FB2E6F5771097595771FAD
:10130000880B990B3EDF28E132E741E35FE316D01B
:10131000AF2D9801AE01FF900F911F91CF91DF91FA
:1013200047DE81CF0BD07FCF70DF28F075DF18F05C
:10133000952309F061CF66CF1124A9CF85DFA0F3F3
:10134000959FD1F3950F50E0551F629FF001729F5A
:10135000BB27F00DB11D639FAA27F00DB11DAA1F79
:10136000649F6627B00DA11D661F829F2227B00DC6
:10137000A11D621F739FB00DA11D621F839FA00D51
:10138000611D221F749F3327A00D611D231F849FA1
:10139000600D211D822F762F6A2F11249F575040F8
:1013A0008AF0E1F088234AF0EE0FFF1FBB1F661F93
:1013B000771F881F91505040A9F79E3F510570F04C
:1013C0001BCF65CF5F3FECF3983EDCF386957795B6
:1013D0006795B795F795E7959F5FC1F7FE2B880F47
:1013E000911D9695879597F908959F3F31F09150FB
:1013F00020F4879577956795B795880F911D9695F9
:10140000879597F90895DF93CF931F930F93FF92DA
:10141000EF92DF927B018C01689405C0DA2EEF0118
:101420008DDFFE01E894A591259135914591559167
:10143000AEF3EF01BDDDFE019701A801DA9479F763
:10144000DF90EF90FF900F911F91CF91DF91089562
:04145000F894FFCF3E
:1014540000A0574500401C46331395430000A040AC
:0814640000C07F4400404E452A
:00000001FF
