:100000008AC00000A6C00000A4C00000A2C000007A
:10001000A0C000009EC000009CC000009AC000006C
:1000200098C0000096C0000094C0000092C000007C
:1000300090C000008EC000008CC000008AC000008C
:100040000BC5000086C0000084C0000082C0000014
:1000500080C000007EC000007CC000007AC00000AC
:1000600078C00000A4C0000074C0000072C000008E
:1000700070C000006EC000006CC000006AC00000CC
:1000800068C0000066C0000064C0000062C00000DC
:1000900060C0000007634236B79BD8A71A3968567C
:1000A00018AEBAAB558C1D3CB7CC5763BD6DEDFD9A
:1000B000753EF6177231BF000000803F0800000057
:1000C000BE922449123EABAAAA2ABECDCCCC4C3E4D
:1000D00000000080BEABAAAAAA3E00000000BF003C
:1000E0000000803F0000000000084178D3BB438738
:1000F000D1133D190E3CC3BD4282AD2B3E68EC824C
:1001000076BED98FE1A93E4C80EFFFBE01C4FF7FD0
:100110003F000000000011241FBECFEFD0E1DEBF82
:10012000CDBF11E0A0E0B1E0E8EEF5E100E00BBFEB
:1001300002C007900D92A230B107D9F721E0A2E0EA
:10014000B1E001C01D92AC34B207E1F716D20C94B5
:10015000F20A56CFCF93DF93CDB7DEB78CE790E0AE
:1001600021E4FC0120838AE790E02CE8FC01208355
:100170008AE790E02AE730E0F90120812064FC0161
:1001800020830000DF91CF910895CF93DF93CDB707
:10019000DEB78AE790E02DECFC01208383E590E058
:1001A00022E0FC0120830000DF91CF9108951F928F
:1001B0000F9200905F000F92112400905B000F924D
:1001C0002F933F938F939F93EF93FF93CF93DF935F
:1001D000CDB7DEB780910201882F90E028E730E0AC
:1001E000F90120813181880F991F895E9E4FFC01A2
:1001F00031832083809102018F5F8093020180917F
:100200000201853011F4109202018CE790E02091F8
:1002100002012064FC0120830000DF91CF91FF9157
:10022000EF919F918F913F912F910F9000925B00E2
:100230000F9000925F000F901F901895CF93DF935F
:100240001F92CDB7DEB789838981882F90E0880F10
:10025000991F895E9E4FFC01808191810F90DF91F3
:10026000CF910895CF93DF93CDB7DEB780E094E0D0
:1002700090932F0180932E018FEF9FEF9093310188
:10028000809330011092320181E094E090933C0120
:1002900080933B018FEF9FEF90933E0180933D0150
:1002A00081E080933F0182E094E09093220180936B
:1002B00021018FEF9FEF909324018093230182E02F
:1002C000809325010000DF91CF910895CF93DF93B4
:1002D00000D0CDB7DEB78A8319828A818830C0F01A
:1002E0008DED90E0FC018081882F90E02A81222F03
:1002F00030E02850310902C0959587952A95E2F79C
:100300008170992721E0892B09F020E0298315C00D
:100310008CED90E0FC018081882F90E02A81222FD3
:1003200030E002C0959587952A95E2F7817099276C
:1003300021E0892B09F020E0298389810F900F901B
:10034000DF91CF910895CF93DF9300D0CDB7DEB783
:1003500088ED90E0FC011082198256C08DEE90E08D
:100360002981222F30E022953295307F3227207F5D
:1003700032272860FC0120838EEE90E0FC01108281
:100380008FEE90E0FC01108280EF90E0FC01108283
:1003900081EF90E0FC01108282EF90E0FC0110827E
:1003A00083EF90E0FC01108284EF90E0FC0110826A
:1003B00085EF90E0FC01108286EF90E0FC01108256
:1003C00087EF90E0FC0110821A8218C08DEE90E059
:1003D0002981222F30E022953295307F3227207FED
:1003E0003227322F2A81232B2860FC0120838AEFB9
:1003F00090E0FC0110828A818F5F8A838A81883035
:1004000028F389818F5F898389818F3008F4A6CF93
:1004100082EE90E022E0FC01208383EE90E02CE06D
:10042000FC01208384EE90E027E3FC0120838BED28
:1004300090E0FC01108288ED90E028ED30E0F901B9
:1004400020812260FC01208300000F900F90DF913B
:10045000CF910895CF93DF9300D000D01F92CDB7F6
:10046000DEB79B838A837D836C83198224C08DEEE3
:1004700090E02A813B81F9012481222F30E02295EE
:100480003295307F3227207F3227322F2981232B4C
:100490002860FC0120838AEF90E02981222F30E040
:1004A0004C815D81240F351FF9012081FC012083DF
:1004B00089818F5F898389818830C8F28DEE90E0D1
:1004C0002A813B81F90124812295207FFC01208330
:1004D0008A819B81FC018481F9DE882309F444C070
:1004E0008EEE90E0FC01108283EF90E02A813B8148
:1004F000F9012081318136952795369527953695D6
:100500002795FC01208382EF90E02A813B81F9014D
:10051000208131812295220F207EFC01208381EFF2
:1005200090E0FC01108280EF90E0FC01108287EFE8
:1005300090E0FC01108286EF90E0FC01108285EFD4
:1005400090E0FC01108284EF90E0FC0110828EEEBE
:1005500090E0FC0110828FEE90E028E4FC01208303
:100560008EEE90E0FC01108200000F900F900F9033
:100570000F900F90DF91CF9108958F929F92AF923D
:10058000CF92DF92EF92FF920F931F93CF93DF935F
:10059000CDB7DEB7AC970FB6F894DEBF0FBECDBFB8
:1005A00018D231D2D7DD69D4CEDE5CDE80E094E0B3
:1005B0009F838E838FEF9FEF998788871A8628E025
:1005C000CE010B96FC01E22E1192EA94E9F781E04C
:1005D00094E09C8B8B8B8FEF9FEF9E8B8D8B81E0BC
:1005E0008F8B28E0CE014896FC01E22E1192EA940E
:1005F000E9F782E094E099A388A38FEF9FEF9BA394
:100600008AA382E08CA328E0CE018596FC01E22E2D
:100610001192EA94E9F77894209113013091140132
:1006200040911501509116018091030190910401B0
:10063000A0910501B0910601281739074A075B0709
:1006400089F08091130190911401A0911501B0914E
:1006500016018093030190930401A0930501B093C8
:10066000060193DD20911301309114014091150191
:10067000509116018091070190910801A091090104
:10068000B0910A0179018A01E81AF90A0A0B1B0BD9
:10069000D801C7010A97A105B105C8F180910001F1
:1006A000813091F58091130190911401A091150171
:1006B000B09116018093070190930801A09309015E
:1006C000B0930A018EE290E02EE230E0F901208141
:1006D0002F7EFC0120838EE490E022E2FC01208347
:1006E00000008DE490E0FC0180818823D4F78EE443
:1006F00090E0FC018081882F90E0909349018093E5
:1007000048011092000103C081E080930001209114
:1007100013013091140140911501509116018091FF
:100720000B0190910C01A0910D01B0910E01790186
:100730008A01E81AF90A0A0B1B0BD801C701843693
:100740009105A105B10508F415C18091130190919F
:100750001401A0911501B091160180930B019093A3
:100760000C01A0930D01B0930E0182E067DDCC0176
:10077000A0E0B0E0BC01CD01B7D4DC01CB01BC01ED
:10078000CD01DBD2DC01CB01BC01CD017CD4DC018D
:10079000CB01898384E052DDCC01A0E0B0E0BC0154
:1007A000CD01A2D4DC01CB01BC01CD0184D2DC019E
:1007B000CB0120E030E04AED52E4BC01CD0193D3FF
:1007C000DC01CB01BC01CD0163D4DC01CB019B83F7
:1007D0008A8385E033DDCC01A0E0B0E0BC01CD012F
:1007E00083D4DC01CB01BC01CD0165D2DC01CB019E
:1007F00020E030E04AEE52E4BC01CD0174D3DC01CC
:10080000CB01BC01CD0144D4DC01CB019D838C83A1
:100810001B861C861D861E861F86188A198A89815A
:100820008A8B80E00BDD0F2EFAE08F2E912CF02DBD
:100830000F2EF5E0AF2EF02D0F2EFAE0CF2ED12C9B
:10084000F02D0F2EF4E6EF2EF02D00E010E020EA60
:1008500030E440E050E0BA012DD1888F80E0EEDC3A
:100860000F2EFAE08F2E912CF02D0F2EF5E0AF2EEB
:10087000F02D0F2EFAE0CF2ED12CF02D0F2EF4E616
:10088000EF2EF02D00E010E020EA30E440E050E0F0
:10089000BA0110D1892F9927898F81E0CFDC0F2EE3
:1008A000FAE08F2E912CF02D0F2EF5E0AF2EF02DCB
:1008B0000F2EFAE0CF2ED12CF02D0F2EF4E6EF2ED6
:1008C000F02D00E010E020E930E440E050E060E08E
:1008D0007FE3F0D08A8F81E0B1DC0F2EFAE08F2E1B
:1008E000912CF02D0F2EF5E0AF2EF02D0F2EFAE00B
:1008F000CF2ED12CF02D0F2EF4E6EF2EF02D00E0B0
:1009000010E020E930E440E050E060E07FE3D2D046
:10091000892F99278B8F80914801909149018C8F65
:1009200080914A0190914B01892F99278D8F1E8EBE
:100930001F8E8A818DA38A819B81892F99278EA3FF
:100940008C818FA38C819D81892F992788A719A6D7
:100950001AA61BA61CA69E01255F3F4FCE01069638
:10096000B90178DD9E01285E3F4FCE014396B90163
:1009700071DD60D020911301309114014091150177
:100980005091160180910F0190911001A0911101D9
:10099000B091120179018A01E81AF90A0A0B1B0BBE
:1009A000D801C701883C9105A105B10508F434CEF2
:1009B0008091130190911401A0911501B09116013D
:1009C00080930F0190931001A0931101B093120135
:1009D00023CECF93DF93CDB7DEB787E290E027E257
:1009E00030E0F90120812560FC01208380E390E064
:1009F00020E330E0F9012081287FFC012083000002
:100A0000DF91CF910895CF93DF93CDB7DEB784E424
:100A100090E02BE0FC0120838EE690E022E0FC01D8
:100A2000208387E490E029EFFC0120830000DF9120
:100A3000CF910895CF93DF93CDB7DEB788E290E0F2
:100A400028E230E0F901308124E02327FC012083F3
:100A50000000DF91CF9108951F920F9200905F00E8
:100A60000F9211248F939F93AF93BF93CF93DF93F4
:100A7000CDB7DEB78091130190911401A0911501BB
:100A8000B09116010196A11DB11D809313019093A1
:100A90001401A0931501B09316010000DF91CF91CE
:100AA000BF91AF919F918F910F9000925F000F9037
:100AB0001F9018958F929F92AF92CF92DF92EF92F4
:100AC000FF920F931F93CF93DF93CDB7DEB76E974F
:100AD0000FB6F894DEBF0FBECDBF988B8F87498BC2
:100AE0005A8B6B8B7C8B0D8B1E8B2F8B388FE98EEB
:100AF000DB8ECA8EAC8E9E8E8D8E8A8D9B8DCC01A8
:100B0000A0E0B0E0BC01CD01EFD2DC01CB019C0143
:100B1000AD0160E070E080E090E4FFD36B017C0108
:100B20008C8D882F90E0092E000CAA0BBB0BBC010A
:100B3000CD01DCD2DC01CB019C01AD01C701B601C6
:100B40003AD2DC01CB0129893A894B895C89BC0105
:100B5000CD0180D3DC01CB01BC01CD0199D2DC01F8
:100B6000CB019C838B838A8D9B8DCC01A0E0B0E070
:100B7000BC01CD01B9D2DC01CB019C01AD0160E02B
:100B800070E080E090E4C9D36B017C018C8D882FEC
:100B900090E0092E000CAA0BBB0BBC01CD01A6D224
:100BA000DC01CB019C01AD01C701B60104D2DC011F
:100BB000CB012D893E894F89588DBC01CD014AD387
:100BC000DC01CB01BC01CD0163D2DC01CB019E83F2
:100BD0008D832D813E818B819C81A901481B590BFE
:100BE000CA01CC01A0E0B0E0BC01CD017DD2DC01A6
:100BF000CB018F839887A987BA87898D882F90E04A
:100C0000092E000CAA0BBB0BBC01CD016FD2DC017D
:100C1000CB012F81388549855A85BC01CD01CBD1C7
:100C2000DC01CB018B879C87AD87BE872F853889F8
:100C30008B819C81A901481B590B2D8D3E8D429FB4
:100C4000C001439F900D529F900D1124CC01A0E054
:100C5000B0E0BC01CD0148D2DC01CB012B853C8545
:100C60004D855E85BC01CD01F5D2DC01CB01BC0117
:100C7000CD010ED2DC01CB019A8389832F8538897F
:100C80008B819C812817390710F41A821982898177
:100C90009A816E960FB6F894DEBF0FBECDBFDF917E
:100CA000CF911F910F91FF90EF90DF90CF90AF9079
:100CB0009F908F900895CF93DF93CDB7DEB728979D
:100CC0000FB6F894DEBF0FBECDBF6D837E838F83DA
:100CD000988719821A821B821C8220E030E048E843
:100CE00052E46D817E818F819885FCD0DC01CB013F
:100CF0002EEF32EA4CE95DE3BC01CD01ABD2DC0161
:100D0000CB0120E030E048EB51E4BC01CD01EBD059
:100D1000DC01CB0189839A83AB83BC8389819A816F
:100D2000AB81BC81BC01CD0128960FB6F894DEBF23
:100D30000FBECDBFDF91CF910895CF93DF93CDB795
:100D4000DEB728970FB6F894DEBF0FBECDBF6D8318
:100D50007E838F83988719821A821B821C8220E0EF
:100D600030E047EF53E46D817E818F8198851FD1FC
:100D70001816A4F120E030E044ED52E46D817E814C
:100D80008F819885AFD0DC01CB0121E735EF43E8B7
:100D90005EE3BC01CD015ED2DC01CB019C01AD0163
:100DA00060E070E088EC92E49DD0DC01CB018983A7
:100DB0009A83AB83BC8320E030E048EC52E4698145
:100DC0007A818B819C8142D2882344F080E090E03C
:100DD000A8ECB2E489839A83AB83BC8320E030E043
:100DE00047EF53E46D817E818F8198852FD218164D
:100DF000ACF520E030EC4CE554E46D817E818F81D0
:100E0000988570D0DC01CB012AE93EE943E85EE336
:100E1000BC01CD011FD2DC01CB0120E030E048EC69
:100E200052E4BC01CD015FD0DC01CB01B058898315
:100E30009A83AB83BC8320E030E048EC52E46981C4
:100E40007A818B819C8102D2882344F080E090E0FB
:100E5000A8ECB2EC89839A83AB83BC8389819A81A5
:100E6000AB81BC81BC01CD0128960FB6F894DEBFE2
:100E70000FBECDBFDF91CF910895CF93DF93CDB754
:100E8000DEB784E290E024E230E0F90120812660C0
:100E9000FC0120838DE290E02DE230E0F901208119
:100EA0002361FC01208384E290E024E230E0F90138
:100EB0002081277FFC0120838CE490E02CE430E04B
:100EC000F90120812265FC0120838EE290E02EE270
:100ED00030E0F90120812361FC0120830000DF91D3
:100EE000CF9108955058BB27AA270ED075C166D15F
:100EF00030F06BD120F031F49F3F11F41EF45BC150
:100F00000EF4E095E7FB51C1E92F77D180F3BA17D2
:100F1000620773078407950718F071F49EF58FC177
:100F20000EF4E0950B2EBA2FA02D0B01B901900104
:100F30000C01CA01A0011124FF27591B99F0593F48
:100F400050F4503E68F11A16F040A22F232F342F90
:100F50004427585FF3CF469537952795A795F040DE
:100F60005395C9F77EF41F16BA0B620B730B840BF3
:100F7000BAF09150A1F0FF0FBB1F661F771F881FAB
:100F8000C2F70EC0BA0F621F731F841F48F4879503
:100F900077956795B795F7959E3F08F0B3CF9395F2
:100FA000880F08F09927EE0F979587950895D9D067
:100FB00008F481E008950CD00FC107D140F0FED0B5
:100FC00030F021F45F3F19F0F0C0511139C1F3C086
:100FD00014D198F39923C9F35523B1F3951B550BFD
:100FE000BB27AA2762177307840738F09F5F5F4FFC
:100FF000220F331F441FAA1FA9F333D00E2E3AF03D
:10100000E0E830D091505040E695001CCAF729D056
:10101000FE2F27D0660F771F881FBB1F26173707A5
:101020004807AB07B0E809F0BB0B802DBF01FF27D5
:1010300093585F4F2AF09E3F510568F0B6C000C13B
:101040005F3FECF3983EDCF3869577956795B7950F
:10105000F7959F5FC9F7880F911D9695879597F92A
:101060000895E1E0660F771F881FBB1F62177307A3
:101070008407BA0720F0621B730B840BBA0BEE1FB8
:1010800088F7E095089504D06894B111D9C0089507
:10109000BCD088F09F5790F0B92F9927B751A0F096
:1010A000D1F0660F771F881F991F1AF0BA95C9F7FC
:1010B00012C0B13081F0C3D0B1E00895C0C0672F35
:1010C000782F8827B85F39F0B93FCCF386957795AC
:1010D0006795B395D9F73EF4909580957095619595
:1010E0007F4F8F4F9F4F0895E89409C097FB3EF4C0
:1010F00090958095709561957F4F8F4F9F4F992365
:10110000A9F0F92F96E9BB279395F69587957795E2
:101110006795B795F111F8CFFAF4BB0F11F460FFA2
:101120001BC06F5F7F4F8F4F9F4F16C0882311F0FA
:1011300096E911C0772321F09EE8872F762F05C00E
:10114000662371F096E8862F70E060E02AF09A95A9
:10115000660F771F881FDAF7880F9695879597F99E
:101160000895990F0008550FAA0BE0E8FEEF161638
:101170001706E807F907C0F012161306E407F5078B
:1011800098F0621B730B840B950B39F40A2661F0FF
:10119000232B242B252B21F408950A2609F4A140A2
:1011A000A6958FEF811D811D089597F99F6780E8AF
:1011B00070E060E008959FEF80EC089500240A94A9
:1011C0001616170618060906089500240A94121622
:1011D0001306140605060895092E0394000C11F455
:1011E000882352F0BB0F40F4BF2B11F460FF04C002
:1011F0006F5F7F4F8F4F9F4F089557FD9058440F5B
:10120000551F59F05F3F71F04795880F97FB991F65
:1012100061F09F3F79F08795089512161306140622
:10122000551FF2CF4695F1DF08C0161617061806AF
:10123000991FF1CF86957105610508940895E8948A
:10124000BB2766277727CB0197F908958ADF08F433
:101250008FEF08950BD0C0CFB1DF28F0B6DF18F0C4
:10126000952309F0A2CFA7CF1124EACFC6DFA0F3C0
:10127000959FD1F3950F50E0551F629FF001729F2B
:10128000BB27F00DB11D639FAA27F00DB11DAA1F4A
:10129000649F6627B00DA11D661F829F2227B00D97
:1012A000A11D621F739FB00DA11D621F839FA00D22
:1012B000611D221F749F3327A00D611D231F849F72
:1012C000600D211D822F762F6A2F11249F575040C9
:1012D0008AF0E1F088234AF0EE0FFF1FBB1F661F64
:1012E000771F881F91505040A9F79E3F510570F01D
:1012F0005CCFA6CF5F3FECF3983EDCF38695779505
:101300006795B795F795E7959F5FC1F7FE2B880F17
:10131000911D9695879597F90895FA01EE0FFF1F95
:1013200030962105310599F16115710561F4803818
:10133000BFE39B0749F168949038810561F08038DC
:10134000BFEF9B0741F0992342F5FF3FE1053105CF
:10135000210511F1E8940894E795D901AA2329F40D
:10136000AB2FBE2FF85FD0F310C0FF5F70F4A695CF
:10137000E0F7F73950F019F0FF3A38F49F779F9370
:101380000CD00F9007FC905808953EF014CF60E009
:1013900070E080E89FE308954FE79F775F934F9356
:1013A0003F932F939ED02F913F914F915F9152DFAA
:1013B00005C019F40EF0F9CE42CFFDCE26DFC8F3FA
:1013C0009638C0F707F80F92E8942BE33AEA48EB17
:1013D0005FE74EDF0F920F920F924DB75EB70F92FD
:1013E000C0D0E4E9F0E016D04F915F91EF91FF910A
:1013F000E595EE1FFF1F49F0FE57E0684427EE0F0A
:10140000441FFA95E1F74195550B32D00F9007FE36
:1014100026C00895DF93CF931F930F93FF92EF920F
:10142000DF927B018C01689405C0DA2EEF011EDF8C
:10143000FE01E894A5912591359145915591AEF322
:10144000EF0162DDFE019701A801DA9479F7DF90E0
:10145000EF90FF900F911F91CF91DF9108959B0125
:10146000AC0160E070E080E89FE3A5CD9ECEACC00B
:10147000CCDEE8F39923D9F3940F511DBBF39150BF
:10148000504094F059F0882332F0660F771F881F80
:1014900091505040C1F79E3F510544F7880F911D70
:1014A0009695879597F908955F3FACF0983E9CF02C
:1014B000BB27869577956795B79508F4B1609395A6
:1014C000C1F7BB0F58F711F460FFE8CF6F5F7F4F94
:1014D0008F4F9F4FE3CFB4CE0EF076C06CCE6894A2
:1014E00064CE93DEC8F39923D1F3C6F3DF93CF9391
:1014F0001F930F93FF92C92FDD2788232AF021978E
:10150000660F771F881FDAF720E030E040E85FEBD6
:101510009FE3883920F0803E30F021968F77E3DC1E
:10152000ECEBF0E003C0DFDCE9EEF0E073DF8B0111
:10153000BE01EC01FB2E6F5771097595771F880B63
:10154000990BD4DD28E132E741E35FE38FDEAF2D75
:101550009801AE01FF900F911F91CF91DF91D4DCE4
:101560003BCEFA01DC01AA0FBB1F9B01AC01BF57A8
:1015700028F422273327442750781FC0B75188F416
:10158000AB2F0024469537952795011CA395D2F3E0
:10159000002069F0220F331F441FB395DAF30DD0FA
:1015A000A1CC61307105A0E88A07B94630F49B01EF
:1015B000AC016627772788279078309621F0208322
:1015C00031834283538308959F3F31F0915020F43B
:1015D000879577956795B795880F911D969587950F
:0815E00097F90895F894FFCF7C
:0215E800010000
:00000001FF
