:1000000049C0000057C0000055C0000053C00000A8
:1000100051C000004FC000004DC000004BC00000A8
:1000200049C0000047C0000045C0000043C00000B8
:1000300041C000003FC000003DC000003BC00000C8
:10004000F1C0000037C0000035C0000033C0000020
:1000500031C000002FC000002DC000002BC00000E8
:1000600029C0000027C0000025C0000023C00000F8
:1000700021C000001FC000001DC000001BC0000008
:1000800019C0000017C0000015C0000013C0000018
:1000900011C0000011241FBECFEFD0E1DEBFCDBFE5
:1000A00021E0A0E0B1E001C01D92A531B207E1F767
:1000B00002D0EDC0A5CFA9D0DAD07894409111013B
:1000C00050911201609113017091140180910D0102
:1000D00090910E01A0910F01B0911001481759079E
:1000E0006A077B0781F08091110190911201A09124
:1000F0001301B091140180930D0190930E01A09310
:100100000F01B09310018091110190911201A09103
:100110001301B09114014091090150910A016091BD
:100120000B0170910C01841B950BA60BB70B0A9762
:10013000A105B105A8F08091110190911201A09143
:100140001301B09114018093090190930A01A093C7
:100150000B01B0930C0182E28EBD809100018EBD37
:100160008091110190911201A0911301B09114019D
:1001700040910501509106016091070170910801BD
:10018000841B950BA60BB70B84369105A105B10511
:1001900088F08091110190911201A0911301B0910A
:1001A00014018093050190930601A0930701B09379
:1001B000080133D08091110190911201A091130197
:1001C000B09114014091010150910201609103012D
:1001D00070910401841B950BA60BB70B883C91050D
:1001E000A105B10508F46ACF809111019091120127
:1001F000A0911301B0911401809301019093020129
:10020000A0930301B093040159CF8BE084BD89EF23
:1002100087BD82E080936E00089598B184E08927BD
:1002200088B908951F920F920FB60F9211248F93E1
:100230009F93AF93BF938091110190911201A09170
:100240001301B09114010196A11DB11D80931101FC
:1002500090931201A0931301B0931401BF91AF9139
:100260009F918F910F900FBE0F901F90189584B1A2
:10027000866084B98DB187608DB984B1877F84B978
:100280008CB582658CBD8EB187608EB90895F89467
:02029000FFCF9E
:00000001FF
