S01300004154393043414E5F5348422E7372656305
S113000049C0000058C0000056C0000054C00000A1
S113001052C0000050C000004EC000004CC00000A0
S11300204AC0000048C0000046C0000044C00000B0
S113003042C0000040C000003EC000003CC00000C0
S11300404AC4000038C0000036C0000034C00000BC
S113005032C0000030C000002EC000002CC00000E0
S11300602AC0000056C0000026C0000024C00000C2
S113007022C0000020C000001EC000001CC0000000
S11300801AC0000018C0000016C0000014C0000010
S113009012C0000011241FBECFEFD0E1DEBFCDBFE0
S11300A021E0A0E0B1E001C01D92A834B207E1F75D
S11300B016D20C946208A4CFCF93DF93CDB7DEB7EA
S11300C08CE790E021E4FC0120838AE790E02CE8AF
S11300D0FC0120838AE790E02AE730E0F9012081DF
S11300E02064FC0120830000DF91CF910895CF9319
S11300F0DF93CDB7DEB78AE790E02DECFC012083D7
S113010083E590E022E0FC0120830000DF91CF91A1
S113011008951F920F9200905F000F921124009097
S11301205B000F922F933F938F939F93EF93FF93D3
S1130130CF93DF93CDB7DEB780910001882F90E095
S113014028E730E0F90120813181880F991F895E09
S11301509E4FFC0131832083809100018F5F809347
S1130160000180910001853011F4109200018CE7A8
S113017090E0209100012064FC0120830000DF91C5
S1130180CF91FF91EF919F918F913F912F910F907C
S113019000925B000F9000925F000F901F901895E3
S11301A0CF93DF931F92CDB7DEB789838981882FE0
S11301B090E0880F991F895E9E4FFC018081918198
S11301C00F90DF91CF910895CF93DF93CDB7DEB732
S11301D080E094E090932F0180932E018FEF9FEFA6
S11301E090933101809330011092320181E094E0C8
S11301F090933C0180933B018FEF9FEF90933E01DE
S113020080933D0181E080933F0182E094E09093EC
S11302102201809321018FEF9FEF9093240180931B
S1130220230182E0809325010000DF91CF9108959E
S1130230CF93DF9300D0CDB7DEB78A8319828A814A
S11302408830C0F08DED90E0FC018081882F90E033
S11302502A81222F30E02850310902C095958795D4
S11302602A95E2F78170992721E0892B09F020E093
S1130270298315C08CED90E0FC018081882F90E0EB
S11302802A81222F30E002C0959587952A95E2F7BE
S11302908170992721E0892B09F020E02983898145
S11302A00F900F90DF91CF910895CF93DF9300D0FB
S11302B0CDB7DEB788ED90E0FC011082198256C0FC
S11302C08DEE90E02981222F30E022953295307F07
S11302D03227207F32272860FC0120838EEE90E0B5
S11302E0FC0110828FEE90E0FC01108280EF90E020
S11302F0FC01108281EF90E0FC01108282EF90E01B
S1130300FC01108283EF90E0FC01108284EF90E006
S1130310FC01108285EF90E0FC01108286EF90E0F2
S1130320FC01108287EF90E0FC0110821A8218C051
S11303308DEE90E02981222F30E022953295307F96
S11303403227207F3227322F2A81232B2860FC0179
S113035020838AEF90E0FC0110828A818F5F8A8378
S11303608A81883028F389818F5F898389818F30DE
S113037008F4A6CF82EE90E022E0FC01208383EE15
S113038090E02CE0FC01208384EE90E027E3FC0164
S113039020838BED90E0FC01108288ED90E028ED45
S11303A030E0F90120812260FC01208300000F90DD
S11303B00F90DF91CF910895CF93DF9300D000D0B9
S11303C01F92CDB7DEB79B838A837D836C831982AA
S11303D024C08DEE90E02A813B81F9012481222FF3
S11303E030E022953295307F3227207F3227322F1A
S11303F02981232B2860FC0120838AEF90E0298146
S1130400222F30E04C815D81240F351FF9012081BA
S1130410FC01208389818F5F898389818830C8F2B8
S11304208DEE90E02A813B81F90124812295207F81
S1130430FC0120838A819B81FC018481F9DE88236D
S113044009F444C08EEE90E0FC01108283EF90E04A
S11304502A813B81F9012081318136952795369592
S1130460279536952795FC01208382EF90E02A8119
S11304703B81F901208131812295220F207EFC01EC
S1130480208381EF90E0FC01108280EF90E0FC017A
S1130490108287EF90E0FC01108286EF90E0FC016F
S11304A0108285EF90E0FC01108284EF90E0FC0163
S11304B010828EEE90E0FC0110828FEE90E028E432
S11304C0FC0120838EEE90E0FC01108200000F906E
S11304D00F900F900F900F90DF91CF910895EF92AE
S11304E0FF920F931F93CF93DF93CDB7DEB7EA97B5
S11304F00FB6F894DEBF0FBECDBFAAD1C3D1DCDDE9
S1130500D4DE62DE70D380E094E09D8B8C8B8FEF21
S11305109FEF9F8B8E8B188E28E0CE014996FC01AD
S1130520E22E1192EA94E9F781E094E09AA389A378
S11305308FEF9FEF9CA38BA381E08DA328E0CE01D6
S11305408696FC01E22E1192EA94E9F782E094E0A7
S11305509FA78EA78FEF9FEF99AB88AB82E08AAB02
S113056028E0CE01C396FC01E22E1192EA94E9F749
S11305707894209113013091140140911501509108
S113058016018091010190910201A0910301B091A3
S11305900401281739074A075B0789F08091130182
S11305A090911401A0911501B0911601809301015D
S11305B090930201A0930301B093040198DD20916C
S11305C0130130911401409115015091160180914D
S11305D0050190910601A0910701B09108017901EC
S11305E08A01E81AF90A0A0B1B0BD801C7010A97FA
S11305F0A105B10558F18091130190911401A091C6
S11306001501B09116018093050190930601A09302
S11306100701B093080181E08CD18093110183E03C
S113062088D1809312011BAA1CAA1DAA1EAA1FAA64
S11306308091110188AF19AE809112018AAF9E0199
S11306402D5C3F4FCE018E96B901B6DE2091130189
S113065030911401409115015091160180910901C6
S113066090910A01A0910B01B0910C0179018A01CA
S1130670E81AF90A0A0B1B0BD801C7018436910545
S1130680A105B10508F4B5C080911301909114013E
S1130690A0911501B09116018093090190930A016C
S11306A0A0930B01B0930C0180E07ADD9A838983D7
S11306B081E076DD9C838B8382E072DD9E838D8373
S11306C083E06EDD98878F8384E06ADD9A8789876B
S11306D089819A816FD19C878B878B819C816AD118
S11306E09E878D878D819E81CC01A0E0B0E0BC0106
S11306F0CD01CFD3DC01CB01BC01CD01D4D1DC01D0
S1130700CB01BC01CD0194D3DC01CB018F878F8158
S11307109885CC01A0E0B0E0BC01CD01BAD3DC01E6
S1130720CB01BC01CD017DD1DC01CB012DEC3CE83A
S113073040E053E4BC01CD01ABD2DC01CB01BC01F0
S1130740CD017BD3DC01CB01998B888B89859A857C
S1130750CC01A0E0B0E0BC01CD019BD3DC01CB0116
S1130760BC01CD015ED1DC01CB012DEC3CE041E0CC
S113077053E4BC01CD018CD2DC01CB01BC01CD0121
S11307805CD3DC01CB019B8B8A8B8A89898F8A8914
S11307909B89892F99278A8F88898B8F8889998942
S11307A0892F99278C8F1D8E1E8E1F8E8F8588A36F
S11307B08B858EA38B859C85892F99278FA38D8507
S11307C088A78D859E85892F992789A71AA61BA698
S11307D01CA61DA69E01275E3F4FCE014496B9017B
S11307E0EBDD9E012A5D3F4FCE018196B901E4DD28
S11307F060D0209113013091140140911501509162
S1130800160180910D0190910E01A0910F01B091FC
S1130810100179018A01E81AF90A0A0B1B0BD801A5
S1130820C701883C9105A105B10508F4A2CE8091C9
S1130830130190911401A0911501B09116018093B8
S11308400D0190930E01A0930F01B093100191CE6E
S1130850CF93DF93CDB7DEB787E290E027E230E0B5
S1130860F90120812560FC01208380E390E020E3EE
S113087030E0F9012081207EFC0120830000DF911B
S1130880CF910895CF93DF93CDB7DEB784E490E0A2
S11308902BE0FC0120838EE690E022E0FC01208323
S11308A087E490E029EFFC0120830000DF91CF91E1
S11308B00895CF93DF93CDB7DEB788E290E028E2C6
S11308C030E0F901308124E02327FC01208300007B
S11308D0DF91CF9108951F920F9200905F000F92C5
S11308E011248F939F93AF93BF93CF93DF93CDB78F
S11308F0DEB78091130190911401A0911501B0917C
S113090016010196A11DB11D80931301909314014A
S1130910A0931501B09316010000DF91CF91BF9110
S1130920AF919F918F910F9000925F000F901F9055
S11309301895CF93DF9300D0CDB7DEB78A831982A1
S11309408A818130B9F48EE290E02EE230E0F90140
S113095020812F7EFC01208381E07FD180E07DD146
S113096089838EE290E02EE230E0F901208120615B
S1130970FC0120838A818330B9F48EE290E02EE278
S113098030E0F90120812F7EFC01208383E065D1D2
S113099080E063D189838EE290E02EE230E0F901B9
S11309A020812061FC01208389810F900F90DF91C9
S11309B0CF910895CF93DF9300D000D0CDB7DEB7A9
S11309C09C838B831A8219828B819C818736910543
S11309D0E8F08B819C8184569109CC01A0E0B0E0C1
S11309E0BC01CD0156D2DC01CB0128EC38E94BE047
S11309F05FE3BC01CD01B4D1DC01CB01BC01CD016D
S1130A001CD2DC01CB019A83898302C01A82198229
S1130A1089819A810F900F900F900F90DF91CF9161
S1130A200895CF93DF93CDB7DEB728970FB6F89428
S1130A30DEBF0FBECDBF6D837E838F8398871982FF
S1130A401A821B821C8220E030E848EB53E46D815B
S1130A507E818F8198851BD1DC01CB0126E130E5B5
S1130A604FE95DEBBC01CD01CAD2DC01CB0123E32C
S1130A7033E344E652E4BC01CD010AD1DC01CB01ED
S1130A8089839A83AB83BC8389819A81AB81BC813E
S1130A90BC01CD0128960FB6F894DEBF0FBECDBFC2
S1130AA0DF91CF910895CF93DF93CDB7DEB7289729
S1130AB00FB6F894DEBF0FBECDBF6D837E838F83E8
S1130AC0988719821A821B821C8220E030E446E057
S1130AD054E46D817E818F8198853ED11816A4F1EE
S1130AE020E030E046E153E46D817E818F8198857A
S1130AF0CED0DC01CB012CEB3CE444E85EE3BC014A
S1130B00CD017DD2DC01CB019C01AD0160E070E040
S1130B1088EC92E4BCD0DC01CB0189839A83AB835B
S1130B20BC8320E030E048EC52E469817A818B8117
S1130B309C8161D2882344F080E090E0A8ECB2E488
S1130B4089839A83AB83BC8320E030E446E054E499
S1130B506D817E818F8198854ED21816ACF520E088
S1130B6030EC4AE554E46D817E818F8198858FD085
S1130B70DC01CB0123EB3AE747E95EE3BC01CD019D
S1130B803ED2DC01CB0120E030E048EC52E4BC0171
S1130B90CD017ED0DC01CB01B05889839A83AB832D
S1130BA0BC8320E030E048EC52E469817A818B8197
S1130BB09C8121D2882344F080E090E0A8ECB2EC40
S1130BC089839A83AB83BC8389819A81AB81BC81FD
S1130BD0BC01CD0128960FB6F894DEBF0FBECDBF81
S1130BE0DF91CF910895CF93DF93CDB7DEB784E241
S1130BF090E024E230E0F90120812660FC012083AA
S1130C0084E290E024E230E0F9012081277FFC01B6
S1130C10208384E290E024E230E0F9012081216025
S1130C20FC0120838DE290E02DE230E0F901208187
S1130C302F61FC0120838EE290E02EE230E0F90186
S1130C4020812F61FC0120838CE490E022E5FC01EB
S1130C5020830000DF91CF910895CF93DF931F92FB
S1130C60CDB7DEB789838EE490E02981FC0120832F
S1130C7000008DE490E0FC0180818823D4F78EE4A9
S1130C8090E0FC0180810F90DF91CF91089550583E
S1130C90BB27AA270ED075C166D130F06BD120F0E6
S1130CA031F49F3F11F41EF45BC10EF4E095E7FBB1
S1130CB051C1E92F77D180F3BA176207730784070C
S1130CC0950718F071F49EF58FC10EF4E0950B2E84
S1130CD0BA2FA02D0B01B90190010C01CA01A0018A
S1130CE01124FF27591B99F0593F50F4503E68F1E5
S1130CF01A16F040A22F232F342F4427585FF3CF26
S1130D00469537952795A795F0405395C9F77EF4F6
S1130D101F16BA0B620B730B840BBAF09150A1F03F
S1130D20FF0FBB1F661F771F881FC2F70EC0BA0FC5
S1130D30621F731F841F48F4879577956795B7954D
S1130D40F7959E3F08F0B3CF9395880F08F0992745
S1130D50EE0F979587950895D9D008F481E008950A
S1130D600CD00FC107D140F0FED030F021F45F3F2A
S1130D7019F0F0C0511139C1F3C014D198F399237B
S1130D80C9F35523B1F3951B550BBB27AA2762174B
S1130D907307840738F09F5F5F4F220F331F441F90
S1130DA0AA1FA9F333D00E2E3AF0E0E830D09150C8
S1130DB05040E695001CCAF729D0FE2F27D0660FB5
S1130DC0771F881FBB1F261737074807AB07B0E8F4
S1130DD009F0BB0B802DBF01FF2793585F4F2AF00A
S1130DE09E3F510568F0B6C000C15F3FECF3983EEA
S1130DF0DCF3869577956795B795F7959F5FC9F767
S1130E00880F911D9695879597F90895E1E0660FEF
S1130E10771F881FBB1F621773078407BA0720F068
S1130E20621B730B840BBA0BEE1F88F7E0950895D1
S1130E3004D06894B111D9C00895BCD088F09F57EC
S1130E4090F0B92F9927B751A0F0D1F0660F771F12
S1130E50881F991F1AF0BA95C9F712C0B13081F0F2
S1130E60C3D0B1E00895C0C0672F782F8827B85F3A
S1130E7039F0B93FCCF3869577956795B395D9F753
S1130E803EF490958095709561957F4F8F4F9F4F5D
S1130E900895E89409C097FB3EF490958095709569
S1130EA061957F4F8F4F9F4F9923A9F0F92F96E9B2
S1130EB0BB279395F695879577956795B795F11127
S1130EC0F8CFFAF4BB0F11F460FF1BC06F5F7F4FC4
S1130ED08F4F9F4F16C0882311F096E911C07723D6
S1130EE021F09EE8872F762F05C0662371F096E8DF
S1130EF0862F70E060E02AF09A95660F771F881FAE
S1130F00DAF7880F9695879597F90895990F000851
S1130F10550FAA0BE0E8FEEF16161706E807F907C7
S1130F20C0F012161306E407F50798F0621B730B62
S1130F30840B950B39F40A2661F0232B242B252BE3
S1130F4021F408950A2609F4A140A6958FEF811D86
S1130F50811D089597F99F6780E870E060E0089527
S1130F609FEF80EC089500240A94161617061806BD
S1130F700906089500240A94121613061406050699
S1130F800895092E0394000C11F4882352F0BB0F2A
S1130F9040F4BF2B11F460FF04C06F5F7F4F8F4F8D
S1130FA09F4F089557FD9058440F551F59F05F3FC8
S1130FB071F04795880F97FB991F61F09F3F79F077
S1130FC087950895121613061406551FF2CF4695F9
S1130FD0F1DF08C0161617061806991FF1CF86957B
S1130FE07105610508940895E894BB27662777275F
S1130FF0CB0197F908958ADF08F48FEF08950BD099
S1131000C0CFB1DF28F0B6DF18F0952309F0A2CFE6
S1131010A7CF1124EACFC6DFA0F3959FD1F3950F94
S113102050E0551F629FF001729FBB27F00DB11D68
S1131030639FAA27F00DB11DAA1F649F6627B00DF8
S1131040A11D661F829F2227B00DA11D621F739FE1
S1131050B00DA11D621F839FA00D611D221F749FEF
S11310603327A00D611D231F849F600D211D822F36
S1131070762F6A2F11249F5750408AF0E1F088237D
S11310804AF0EE0FFF1FBB1F661F771F881F91508A
S11310905040A9F79E3F510570F05CCFA6CF5F3F4B
S11310A0ECF3983EDCF3869577956795B795F795BD
S11310B0E7959F5FC1F7FE2B880F911D9695879545
S10B10C097F90895F894FFCF9D
S9030000FC
