S01B000041546D65676131365F576865656C73706565642E737265630E
S11300000C942A000C9466000C943C000C943C0064
S11300100C943C000C943C000C943C000C943C006C
S11300200C943C000C943C000C942D020C943C0069
S11300300C943C000C943C000C943C000C943C004C
S11300400C943C000C943C000C943C000C94D301A4
S11300500C943C0011241FBECFE5D4E0DEBFCDBF1D
S113006020E0A0E6B0E001C01D92AE37B207E1F790
S11300700E94FA000C9419040C940000CF93DF93AF
S1130080CDB7DEB78AE390E021E0FC01208385E56B
S113009090E025E530E0F90120812260FC01208315
S11300A085E590E025E530E0F90120812E7FFC0113
S11300B020838BE590E02BE530E0F901208120647A
S11300C0FC0120830000DF91CF9108951F920F92CD
S11300D000905F000F921124EF92FF920F931F93F1
S11300E02F933F934F935F938F939F93AF93BF93BC
S11300F0CF93DF93CDB7DEB72091770030917800AE
S11301004091790050917A00809161009091620051
S1130110A0916300B091640079018A01E81AF90A98
S11301200A0B1B0BD801C70182959295907F9827E3
S1130130807F982790936600809365008091770074
S113014090917800A0917900B0917A008093610039
S113015090936200A0936300B09364000000DF9169
S1130160CF91BF91AF919F918F915F914F913F91AB
S11301702F911F910F91FF90EF900F9000925F00CD
S11301800F901F901895CF93DF93CDB7DEB71092E1
S11301907C008091600080937D0080916500909147
S11301A06600CC01A0E0B0E0BC01CD010E941E03BA
S11301B0DC01CB019C01AD016DE871E988EB94E4AD
S11301C00E947D02DC01CB0120E030E040E450E4F9
S11301D0BC01CD010E94AC03DC01CB01BC01CD010B
S11301E00E94EF02DC01CB01809360000000DF91EC
S11301F0CF910895EF92FF920F931F93CF93DF93C4
S1130200CDB7DEB70E94B8010E9401020E943E00F1
S11302107894209177003091780040917900509142
S11302207A008091670090916800A0916900B09174
S11302306A00281739074A075B0791F08091770015
S113024090917800A0917900B0917A008093670032
S113025090936800A0936900B0936A000E94C30061
S113026020917700309178004091790050917A0084
S113027080916B0090916C00A0916D00B0916E0024
S113028079018A01E81AF90A0A0B1B0BD801C70184
S11302900A97A105B10580F08091770090917800CC
S11302A0A0917900B0917A0080936B0090936C00D8
S11302B0A0936D00B0936E00209177003091780088
S11302C04091790050917A0080916F009091700074
S11302D0A0917100B091720079018A01E81AF90ABB
S11302E00A0B1B0BD801C70184369105A105B10582
S11302F080F08091770090917800A0917900B0917E
S11303007A0080936F0090937000A0937100B09373
S113031072002091770030917800409179005091DB
S11303207A008091730090917400A0917500B0914F
S1130330760079018A01E81AF90A0A0B1B0BD80125
S1130340C701883C9105A105B10508F462CF8091ED
S1130350770090917800A0917900B0917A00809311
S1130360730090937400A0937500B093760051CFFE
S1130370CF93DF93CDB7DEB783E590E02BE0FC01AC
S1130380208389E590E029E530E0F90120812360AC
S1130390FC0120838CE590E029EFFC012083000020
S11303A0DF91CF9108951F920F9200905F000F92FA
S11303B011248F939F93AF93BF93CF93DF93CDB7C4
S11303C0DEB78091770090917800A0917900B09188
S11303D07A000196A11DB11D809377009093780057
S11303E0A0937900B0937A000000DF91CF91BF9180
S11303F0AF919F918F910F9000925F000F901F908B
S11304001895CF93DF93CDB7DEB787E390E027E36A
S113041030E0F90120812F74FC01208387E390E010
S113042027E330E0F90120812064FC0120838DE280
S113043090E02DE230E0F9012081206CFC01208362
S11304408AE390E02AE330E0F90120812F7EFC0169
S113045020830000DF91CF9108951F920F920090A6
S11304605F000F9211242F933F938F939F93EF93E9
S1130470FF93CF93DF93CDB7DEB78FE290E0FC011B
S11304808081823251F48BE390E02BE330E0F90178
S113049020812061FC01208309C08BE390E02BE3E1
S11304A030E0F90120812F7EFC01208380917B00C4
S11304B0882361F48FE290E020917C00FC0120838A
S11304C080917B008F5F80937B0008C08FE290E077
S11304D020917D00FC01208310927B000000DF91BD
S11304E0CF91FF91EF919F918F913F912F910F9019
S11304F000925F000F901F9018950E9491020C9437
S113050072030E946B0358F00E94640340F029F4C4
S11305105F3F29F00C945B0351110C94A6030C94D7
S113052061030E94830368F39923B1F3552391F384
S1130530951B550BBB27AA2762177307840738F04E
S11305409F5F5F4F220F331F441FAA1FA9F335D0AB
S11305500E2E3AF0E0E832D091505040E695001C5F
S1130560CAF72BD0FE2F29D0660F771F881FBB1F19
S1130570261737074807AB07B0E809F0BB0B802DF7
S1130580BF01FF2793585F4F3AF09E3F510578F023
S11305900C945B030C94A6035F3FE4F3983ED4F3FE
S11305A0869577956795B795F7959F5FC9F7880FF7
S11305B0911D9695879597F90895E1E0660F771F49
S11305C0881FBB1F621773078407BA0720F0621BDA
S11305D0730B840BBA0BEE1F88F7E09508950E9405
S11305E08B0388F09F5798F0B92F9927B751B0F033
S11305F0E1F0660F771F881F991F1AF0BA95C9F7A3
S113060014C0B13091F00E94A503B1E008950C9498
S1130610A503672F782F8827B85F39F0B93FCCF34B
S1130620869577956795B395D9F73EF4909580951F
S1130630709561957F4F8F4F9F4F0895E89409C03F
S113064097FB3EF490958095709561957F4F8F4F01
S11306509F4F9923A9F0F92F96E9BB279395F69517
S1130660879577956795B795F111F8CFFAF4BB0F95
S113067011F460FF1BC06F5F7F4F8F4F9F4F16C0F9
S1130680882311F096E911C0772321F09EE8872F83
S1130690762F05C0662371F096E8862F70E060E03F
S11306A02AF09A95660F771F881FDAF7880F9695B8
S11306B0879597F9089597F99F6780E870E060E05F
S11306C008959FEF80EC089500240A9416161706E7
S11306D018060906089500240A941216130614062F
S11306E005060895092E0394000C11F4882352F092
S11306F0BB0F40F4BF2B11F460FF04C06F5F7F4F4A
S11307008F4F9F4F089557FD9058440F551F59F030
S11307105F3F71F04795880F97FB991F61F09F3FEA
S113072079F087950895121613061406551FF2CF13
S11307304695F1DF08C0161617061806991FF1CF63
S113074086957105610508940895E894BB2766278A
S11307507727CB0197F908950E94BF030C94720385
S11307600E94640338F00E946B0320F0952311F07B
S11307700C945B030C94610311240C94A6030E9453
S1130780830370F3959FC1F3950F50E0551F629F4B
S1130790F001729FBB27F00DB11D639FAA27F00DD6
S11307A0B11DAA1F649F6627B00DA11D661F829FFD
S11307B02227B00DA11D621F739FB00DA11D621FE2
S11307C0839FA00D611D221F749F3327A00D611DFF
S11307D0231F849F600D211D822F762F6A2F1124E1
S11307E09F5750409AF0F1F088234AF0EE0FFF1F14
S11307F0BB1F661F771F881F91505040A9F79E3F6B
S1130800510580F00C945B030C94A6035F3FE4F362
S1130810983ED4F3869577956795B795F795E795C0
S11308209F5FC1F7FE2B880F911D9695879597F9C9
S10908300895F894FFCFC7
S9030000FC
