:100000000C942A000C943C000C943C000C943C0092
:100010000C943C000C943C000C943C000C943C0070
:100020000C943C000C943C000C943C000C943C0060
:100030000C943C000C943C000C943C000C943C0050
:100040000C943C000C943C000C943C000C943C0040
:100050000C943C0011241FBECFE5D4E0DEBFCDBF21
:1000600020E0A0E6B0E001C01D92A936B207E1F79A
:100070000E943E000C9479000C9400000E946B00DA
:100080000E9475008091610090916200A0916300D0
:10009000B0916400409165005091660060916700E6
:1000A0007091680084179507A607B70769F08093D9
:1000B000650090936600A0936700B09368008091FC
:1000C00060008F5F80936000809160008A30C0F292
:1000D00010926000D5CF87B38F7487BB87B38064DD
:1000E00087BB8DB180648DB90895779BFECF8FB1AA
:0600F0000895F894FFCF13
:00000001FF
