:100000000C942A000C9434000C9434000C943400AA
:100010000C9434000C9434000C9434000C94340090
:100020000C9434000C9434000C9434000C94340080
:100030000C9434000C9434000C9434000C94340070
:100040000C9434000C9434000C9434000C94340060
:100050000C94340011241FBECFE5D4E0DEBFCDBF29
:100060000E9436000C9449000C9400000E943B0052
:100070000E944500FDCF87B38F7487BB87B3806430
:1000800087BB8DB180648DB90895779BFECF8FB10A
:060090000895F894FFCF73
:00000001FF
