S0120000415474696E79436F64652E737265633E
S11300000EC01DC05BC01BC01AC019C018C017C0E9
S113001016C015C01EC013C012C011C03FC01124A9
S11300201FBECFE5D2E0DEBFCDBF20E0A0E6B0E04A
S113003001C01D92AC36B207E1F792D0BEC0E0CF4A
S113004082E08ABD83BF89B7826189BF83E689BDA7
S113005008951F920F920FB60F9211248F939F93BE
S1130060AF93BF938091610090916200A09163006F
S1130070B09164000196A11DB11D8093610090931D
S11300806200A0936300B0936400BF91AF919F910D
S11300908F910F900FBE0F901F9018951F920F9283
S11300A00FB60F9211248F9385E08FB980E48EB937
S11300B08F910F900FBE0F901F9018951F920F9263
S11300C00FB60F9211248F939F93B0990BC083E0C6
S11300D08FB987B3826087BB80E48EB98DB18064A9
S11300E08DB91EC0B09B0AC08DB18F7B8DB987B30B
S11300F08D7F87BB88B38D7F88BB12C086B39091F8
S113010060008072891761F080E2809360008091C2
S1130110690090916A00019690936A008093690047
S11301209F918F910F900FBE0F901F90189580E2B2
S11301308BBF81E085BB87B38A7F87BB87B38D7F05
S113014087BB88B3856088BB88B38D7F88BB8CE10F
S11301508DB91FB880E48EB9089580E285BB0895F7
S11301606FDFE5DFFADF789480916100909162009F
S1130170A0916300B09164004091650050916600C5
S1130180609167007091680084179507A607B70708
S113019069F08093650090936600A0936700B09324
S11301A0680080916B008F5F80936B0080916B007F
S11101B08A30D0F210926B00D7CFF894FFCFB4
S9030000FC
