:100000000C942A000C943C000C9483000C943C004B
:100010000C943C000C943C000C943C000C943C0070
:100020000C943C000C943C000C94D9010C943C00C2
:100030000C943C000C943C000C943E000C943C004E
:100040000C943C000C943C000C943C000C94A701D4
:100050000C943C0011241FBECFE5D4E0DEBFCDBF21
:1000600020E0A0E6B0E001C01D92A838B207E1F799
:100070000E94F5000C9413020C9400001F920F9242
:100080000FB60F9211242F933F938F93EF93FF930B
:1000900080916000E82FF0E024B135B1EE0FFF1F32
:1000A000ED57FF4F318320838F5F80936000853051
:1000B00011F41092600080916000806487B9FF9114
:1000C000EF918F913F912F910F900FBE0F901F9046
:1000D000189581B3877F81BB85B7886085BF85B759
:1000E000846085BF8BB780688BBF089560916D0079
:1000F00070E088EE93E00E94EB01609385008091B0
:10010000850090E008951F920F920FB60F92112470
:100110002F933F934F935F936F937F938F939F930F
:10012000AF93BF93CF93DF93EF93FF9380917F00C3
:1001300090918000A0918100B0918200409169006F
:1001400050916A0060916B0070916C00841B950B5C
:10015000A60BB70B8093610090936200A09363009D
:10016000B0936400109265001092660010926700D0
:100170001092680080916E00803141F40E947600F8
:100180008093870010926E0010926D0080916E0037
:100190008F5F80936E0090916D0080916100890F58
:1001A00080936D0080917F0090918000A0918100EC
:1001B000B09182008093690090936A00A0936B00D5
:1001C000B0936C00FF91EF91DF91CF91BF91AF9110
:1001D0009F918F917F916F915F914F913F912F915F
:1001E0000F900FBE0F901F9018950E949F010E94C4
:1001F000CC010E946900789440917F00509180006A
:10020000609181007091820080917B0090917C00D0
:10021000A0917D00B0917E00481759076A077B07BF
:1002200081F080917F0090918000A0918100B09139
:10023000820080937B0090937C00A0937D00B0931C
:100240007E0080917F0090918000A0918100B0910C
:100250008200409177005091780060917900709110
:100260007A00841B950BA60BB70B0A97A105B10565
:1002700080F080917F0090918000A0918100B091EA
:1002800082008093770090937800A0937900B093D8
:100290007A0080917F0090918000A0918100B091C0
:1002A00082004091730050917400609175007091CC
:1002B0007600841B950BA60BB70B84369105A10520
:1002C000B10590F080917F0090918000A091810015
:1002D000B09182008093730090937400A093750096
:1002E000B09376001092870080917F0090918000FB
:1002F000A0918100B091820040916F0050917000F8
:100300006091710070917200841B950BA60BB70B66
:10031000883C9105A105B10508F46ECF80917F005E
:1003200090918000A0918100B091820080936F0035
:1003300090937000A0937100B09372005DCF8BE03A
:1003400083BF89B7836089BF89EF8CBF08951F92EF
:100350000F920FB60F9211248F939F93AF93BF9379
:1003600080917F0090918000A0918100B0918200E7
:100370000196A11DB11D80937F0090938000A093F2
:100380008100B0938200BF91AF919F918F910F90A8
:100390000FBE0F901F90189587B38F7487BB87B3DC
:1003A000806487BB8DB1806C8DB98AB38F7E8ABB28
:1003B00008951F920F920FB60F9211248F938FB151
:1003C000823219F4809187008FB98F910F900FBE00
:1003D0000F901F90189597FB072E16F4009407D0E6
:1003E00077FD09D00E94FF0107FC05D03EF49095EF
:1003F00081959F4F0895709561957F4F0895AA1B31
:10040000BB1B51E107C0AA1FBB1FA617B70710F0FF
:10041000A61BB70B881F991F5A95A9F78095909531
:0A042000BC01CD010895F894FFCF50
:00000001FF
