:1000000049C000004FC000004DC000004BC00000C0
:1000100049C0000047C0000045C0000043C00000C8
:1000200041C000003FC000003DC000003BC00000D8
:1000300039C0000037C0000035C0000033C00000E8
:1000400031C000002FC000002DC000002BC00000F8
:1000500029C0000027C0000025C0000023C0000008
:1000600021C000001FC000001DC000001BC0000018
:1000700019C0000017C0000015C0000013C0000028
:1000800011C000000FC000000DC000000BC0000038
:1000900009C0000011241FBECFEFD0E1DEBFCDBFED
:1000A00002D00AC0ADCF04D005D005D002D0FFCF1A
:0C00B0000895089508950895F894FFCF76
:00000001FF
